:020000040800F2
:10000000D00C002001010008090100080B010008C4
:100010000D0100080F010008110100080000000098
:1000200000000000000000000000000013010008B4
:100030001501000800000000170100082D1000083D
:100040001B0100081B0100081B0100081B01000820
:100050001B0100081B0100081B0100081B01000810
:100060001B0100081B0100081B0100081B01000800
:100070001B0100081B0100081B0100081B010008F0
:100080001B0100081B0100081B0100081B010008E0
:100090001B0100081B0100081B0100081B010008D0
:1000A0001B0100081B0100081B0100081B010008C0
:1000B0001B0100081B0100081B0100081B010008B0
:1000C0001B0100081B0100081B0100081B010008A0
:1000D0001B0100082B1100081B0100081B01000870
:1000E0001B0100081B0100081B010008DFF80CD0F1
:1000F00002F024FC00480047F50E0008D00C002058
:100100000648804706480047FEE7FEE7FEE7FEE7B1
:10011000FEE7FEE7FEE7FEE7FEE7FEE7BD2000089C
:10012000ED00000802460B7883EA020080EA001323
:10013000D8B20B881B1283EA002383EAC00383EA48
:1001400020130B8070474FF6FF710180704738B560
:1001500004460D466846FFF7F6FF04E014F8010B6D
:100160006946FFF7DFFF2800A5F101018DB2F5D147
:10017000BDF8000038BD2DE9F04104460D46164695
:100180002F4604E017F8010B2146FFF7CBFF3000A4
:10019000A6F101018EB2F5D1BDE8F0812DE9F04F55
:1001A00093B083468A46DBF8000002F0F9F9044672
:1001B0000D46DBF8040002F0F3F906460F46DBF8C3
:1001C000080002F0EDF980468946DBF80C0002F0E9
:1001D000E7F9CDE9100122462B462046294602F0D8
:1001E000FEF8CDE90E0132463B463046394602F074
:1001F000F6F8CDE90C0142464B464046494602F02E
:10020000EEF8CDE90A01DDE910231046194602F0A7
:10021000E6F8CDE90801DDE90C23DDE90E0102F085
:1002200037F8CDE90201DDE90A2302F0D2F8CDE981
:100230000401DDE9082302F0CCF8CDE9060102F063
:10024000C2F9CAF8000020462946DDE9102302F071
:10025000C6F842464B46CDE902013046394602F027
:10026000BEF8CDE90001DDE9022302F0B2F8002278
:100270004FF08043CDE9040102F0B1F8CDE9060169
:1002800002F0A1F9CAF8040030463946DDE910232E
:1002900002F0A5F842464B46CDE902012046294628
:1002A00002F09DF8CDE90001DDE9022301F0F0FF45
:1002B00000224FF08043CDE9040102F090F8CDE92F
:1002C000060102F080F9CAF8080020462946DDE957
:1002D000102302F084F842464B46CDE90201304635
:1002E000394602F07CF8CDE90001DDE9022301F096
:1002F000CFFF00224FF08043CDE9040102F06FF8F8
:10030000CDE9060102F05FF9CAF80C00DDE90C2323
:10031000DDE90E0102F05DF8CDE90201DDE90A2315
:1003200001F0B6FFCDE90401DDE9082302F051F840
:10033000CDE9060102F047F9CAF8100032463B4603
:100340002046294602F04BF8CDE9020140464946D5
:10035000DDE9102302F043F8CDE90001DDE90223D5
:1003600002F037F800224FF08043CDE9040102F09B
:1003700036F8CDE9060102F026F9CAF81400424623
:100380004B462046294602F02AF8CDE902013046C4
:100390003946DDE9102302F022F8CDE90001DDE95C
:1003A000022302F016F800224FF08043CDE9040149
:1003B00002F015F8CDE9060102F005F9CAF81800B7
:1003C00040464946DDE9102302F009F832463B4633
:1003D000CDE902012046294602F001F8CDE90001ED
:1003E000DDE9022301F054FF00224FF08043CDE904
:1003F000040101F0F4FFCDE9060102F0E4F8CAF8C7
:100400001C00DDE90C23DDE90E0101F0E2FFCDE97E
:100410000201DDE90A2301F0DCFFCDE90401DDE999
:10042000082301F035FFCDE9060102F0CCF8CAF847
:10043000200013B0BDE8F08F2DE9FF5F04460F46A2
:1004400090469946A06980F0004B584602F0A8F803
:10045000CDE9000102F034FECDE9020102F0B3F86B
:1004600082460020FC4902F02BFECDE9000102F09B
:10047000AAF85146029001F008FF83462BF0004095
:10048000F649039002F0BCF813D200252169A06858
:1004900001F0A6FE03906168606901F0F3FE02902E
:1004A000039902F04BFF8346294601F099FE064668
:1004B00031E00020E84902F003FECDE9000102F03E
:1004C00082F85146029001F08BFE83462BF00040EB
:1004D000E249039002F094F813D200252169A06844
:1004E00001F07EFE2946029001F0CCFE8346616851
:1004F000606901F0C7FE5946039002F01FFF0646EF
:1005000009E0D4E9070102F019FF05462168E06817
:1005100002F014FF06463D60C8F800A0C9F800606C
:10052000BDE8FF9FF0B589B004460D4616461F464C
:1005300069462046FFF732FE3B463246294668466A
:10054000FFF77AFF09B0F0BD2DE9FF4F8FB08B4662
:100550009A460F9802F024F800224FF08043CDE92C
:10056000040101F0AEFFCDE9060103F011F80446E5
:100570000D460F9802F014F800224FF08043CDE9A9
:10058000040101F09EFFCDE9060103F057F806468D
:100590000F46584602F004F800224FF08043CDE9A0
:1005A000040101F08EFFCDE9060102F0F1FF804663
:1005B0008946584601F0F4FF00224FF08043CDE910
:1005C000040101F07EFFCDE9060103F037F8CDE923
:1005D0000C01119801F0E4FF00224FF08043CDE9B7
:1005E000040101F06EFFCDE9060102F0D1FFCDE973
:1005F0000A01119801F0D4FF00224FF08043CDE9A9
:10060000040101F05EFFCDE9060103F017F8CDE922
:10061000080130463946DDE90C2301F0E0FECDE962
:100620000001DDE9082301F0DAFE42464B46CDE940
:1006300004012046294601F0D2FECDE90001DDE9A2
:100640000A2301F0CCFECDE90201DDE9042301F02B
:100650001FFECDE9060101F0B6FFCAF800002046F2
:100660002946DDE90C2301F0BAFECDE90001DDE900
:10067000082301F0B4FE42464B46CDE90401304662
:10068000394601F0ACFECDE90001DDE90A2301F0B5
:10069000A6FECDE90201DDE9042301F09AFECDE9D1
:1006A000060101F090FFCAF8040042464B4630466E
:1006B000394601F094FECDE90001DDE9082301F09F
:1006C0008EFECDE9040120462946DDE90C2301F028
:1006D00086FECDE90001DDE90A2301F080FECDE9C7
:1006E0000201DDE9042301F0D3FDCDE9060101F0AB
:1006F0006AFFCAF8080030463946DDE90C2301F0EC
:100700006EFECDE90001DDE90A2301F068FE4246F4
:100710004B46CDE904012046294601F060FECDE9B3
:100720000001DDE9082301F05AFECDE90201DDE90F
:10073000042301F04EFECDE9060101F044FFCAF8A2
:100740000C0013B0BDE8F08F2DE9F04F87B00446E0
:1007500089462169206801F043FD8346216A01F042
:100760003FFD824601F01CFF074600223A4B01F094
:100770008FFDCDE9020102F0B9FF05460022384B9A
:1007800001F02DFECDE9040101F01DFFC9F80000C4
:100790002169206801F076FD0290216A01F072FD66
:1007A000039001F0FDFE824600222B4B01F070FD0C
:1007B000CDE9040102F09AFF05460022284B01F022
:1007C0000EFE074601F0FFFEC9F80400206880F025
:1007D00000400190216901F003FD0290216A01F0BF
:1007E00051FD039001F0DCFE00221B4BCDE904011A
:1007F00001F04EFD054602F079FF07460022184B36
:1008000001F0EDFD824601F0DEFEC9F80800206827
:1008100080F000400190216901F034FD0290216ACE
:1008200001F0DEFC039001F0BBFE824600220A4B81
:1008300001F02EFD074602F059FF05460022084B45
:1008400001F0CDFDCDE9040101F0BDFEC9F80C00B9
:1008500007B0BDE8F08F00000000F03F6F12833A50
:100860000000E03F2DE9FF4F8FB08B469A460F986E
:1008700001F096FECDE9060102F08AFE04460D461F
:100880000F9801F08DFECDE9060102F0D7FE064675
:100890000F46584601F084FECDE9060102F078FECD
:1008A000CDE90C01584601F07BFECDE9060102F0CE
:1008B000C5FE80468946119801F072FECDE9060119
:1008C00002F066FECDE90A01119801F069FECDE95A
:1008D000060102F0B3FECDE90801DDE90A23DDE9F6
:1008E0000C0101F07CFDCDE9060101F06CFECAF8B7
:1008F000000042464B463046394601F070FDCDE9D6
:100900000001DDE90A2301F06AFDCDE9040185F06B
:100910000040CDE900402046DDE90823019901F0BF
:100920005EFDCDE90201DDE9042301F0B1FCCDE972
:10093000060101F048FECAF8040042464B46204634
:10094000294601F04CFDCDE90001DDE90A2301F063
:1009500046FDCDE9040130463946DDE9082301F0C2
:100960003EFDCDE90201DDE9042301F091FCCDE972
:10097000060101F028FECAF80800DDE90823DDE9D8
:100980000C0101F02CFDCDE9060101F01CFECAF8B6
:100990000C0042464B463046394601F020FDCDE979
:1009A0000001DDE9082301F01AFDCDE9040120462C
:1009B0002946DDE90A2301F012FDCDE90201DDE956
:1009C000042301F065FCCDE9060101F0FCFDCAF845
:1009D000100042464B462046294601F000FDCDE975
:1009E0000001DDE9082301F0FAFCCDE9040187F0FC
:1009F0000040CDE900603046DDE90A23019901F0AD
:100A0000EEFCCDE90201DDE9042301F041FCCDE972
:100A1000060101F0D8FDCAF8140089F000414046F3
:100A2000CDE9068101F0CFFDCAF8180030463946FD
:100A3000DDE90C2301F0D3FCCDE9060101F0C3FD93
:100A4000CAF81C0020462946DDE90C2301F0C7FC4A
:100A5000CDE9060101F0B7FDCAF8200013B0BDE8EA
:100A6000F08F014601EB4100FE4A02EB8000704727
:100A700010B503461846FFF7F4FF04460120E07066
:100A800010BD2DE9F04704460D4616461F46DDE928
:100A90000889FE20A07084F803806571A67138462D
:100AA000FFF7DFFF807920713846FFF7DAFF8079A2
:100AB000401CC3B23846FFF7D4FF83710521E01C08
:100AC000FFF745FB2080E27804F108012046FFF79C
:100AD00052FB21464846FFF725FB2178E27804F1D6
:100AE0000800815420880212E078401C04F10801BB
:100AF0000A5408F10800BDE8F0872DE9FC410546DD
:100B00000E4617461C46DDF8208000233A46314643
:100B10002846CDE90048FFF7B4FFBDE8FC8170B579
:100B200004460D461646012C03D1F1B2284600F0CA
:100B300031FC70BD70B504460D4616463246294656
:100B40002046FFF7ECFF70BD2DE9FF4780460E46BB
:100B500017461C46DDF830904046FFF782FF0546F9
:100B6000FE208DF804008DF80540A8798DF8060068
:100B7000BD4800788DF80700BB4840788DF8080024
:100B80008DF80960A879401CA87105210DF10500B8
:100B9000FFF7DDFA03902246394603A8FFF7EBFA88
:100BA00003A94846FFF7BEFABDF80C00C0B28DF8A5
:100BB0000000BDF80C0000128DF80100062201A90A
:100BC0004046FFF7B7FF224639464046FFF7B2FFDF
:100BD000022269464046FFF7ADFFBDE8FF8738B502
:100BE00005460C4620788DF80000208800128DF80C
:100BF00001000622A11C2846FFF79CFFE27804F1C1
:100C000008012846FFF796FF022269462846FFF7AB
:100C100091FF38BD70B505460C46E078821DA11CD9
:100C2000284601F0CBFAE078801D46192078307014
:100C3000208800127070E078083070BD10B504464E
:100C40002046FFF780FA10BD70B504460D462146D8
:100C50002846FFF767FA70BD014601EB0110834A91
:100C600002EB001070472DE9F04781460E46904692
:100C70001F464846FFF7F0FF05464846FFF7F1FEDE
:100C800004464FF0000A00202070E0780A2811D2B4
:100C9000DFE800F0050611302838404D5E7F00BFC8
:100CA000FE2E07D10220E0700020E870AE702846CA
:100CB000FFF7C4FF91E0207850B16078401C60706D
:100CC000A078401CA070002020700120E07008E097
:100CD000EE700020207131462846FFF7B5FF042052
:100CE000E0707AE02E7131462846FFF7ADFF032011
:100CF000E07072E06E7131462846FFF7A5FF0520CF
:100D0000E0706AE0AE7131462846FFF79DFF06208D
:100D1000E07062E0EE7131462846FFF795FFE87813
:100D200010B90820E07001E00720E07055E021795B
:100D3000481C207105F10800465431462846FFF74B
:100D400083FF2079E978884201D10820E07044E0EF
:100D5000E879474A115C2846FFF776FF2878B042C9
:100D600010D0A078401CA070002020700120E070FE
:100D7000FE2E0DD10220E0700020E8702846FFF71B
:100D80005DFF05E00920E070217905F10800465477
:100D900023E02888B6EB202F10D0A078401CA0704C
:100DA000002020700120E070FE2E15D10220E0709E
:100DB0000020E8702846FFF741FF0DE00120207079
:100DC000E0702079401C05F108010E544FF4887240
:100DD0002946404601F0F2F900BF00BF0AF1010ABE
:100DE0002078012808D128796071208908B900206D
:100DF00060812089401C20816079401C78712089A5
:100E00003881A07878810020A0702078BDE8F08734
:100E10002DE9F04F8446884616461F46DDE90994C1
:100E20004346E2463A463146002F01DD481EC1B234
:100E30002FE0C2F10800C0B2984201DBDDB202E04F
:100E4000C2F10800C5B2605CC5F1080E4FF0FF0B9F
:100E50004BFA0EFB00EA0B00605414F801B00020BE
:100E6000A84007E044000020B404002074000020E3
:100E70003837000800EA0A004BEA000B04F801B01A
:100E80005019C2B2581B83B2002B02DD481CC1B2FC
:100E90000022002BCDDC89F80020072A01D0481C55
:100EA000C1B2881BC0B2BDE8F08F00206149088044
:100EB000704708B50121102000F026FE4FF40050C5
:100EC000ADF8000010208DF8030003208DF802001B
:100ED0006946594800F062FB4FF40051564800F053
:100EE00008FC08BD142055490870C820487002202D
:100EF00088707047CEB04FF4A06000F081FA50487F
:100F000000684FF47A72B0FBF2F1481EB0F1807FB6
:100F100000D31BE0481E4FF0E022506150170F2213
:100F2000002807DA13071E0E464B00F00F04241F9B
:100F30001E5503E013071C0E434B1C5400BF00203A
:100F40004FF0E02290610720106100BFFFF7ADFF76
:100F5000FFF7AFFF4FF4E13000F084F8FFF7C2FF76
:100F60005DE034480088B0F57A7F58DB01243748CB
:100F7000067800274FF04008B9464FF0030ACDF835
:100F800024908DF828608DF829708DF82A808DF8CE
:100F90002BA003208DF82C003220092309AA002160
:100FA00000902046FFF7D0FD00BF24480678407827
:100FB000274C1E27DFF89C80DFF89C90DFF89CA070
:100FC000DFF89CB0CDE9090BCDF82CB00297CDF835
:100FD0000C80CDF81090CDF814A0CDF818B00A9878
:100FE00007900B9808901C2202A904F1080001F058
:100FF000E5F81E20E07127201C2300903146204692
:10100000099AFFF77AFD21460CA8FFF703FE054673
:10101000E9B20CA800F0BEF9002006490880A0E75C
:1010200004480088401C03490880704700B5FFF75A
:10103000F7FF00BD0A00002000100140B4040020AA
:101040002C00002018ED00E000E400E0000000208B
:10105000BD040020C0C6B93DD9A564BD627CAB3CCF
:101060009A99993F10B588B004460121880300F091
:101070004BFD0121042000F047FD25208DF80400E0
:1010800002208DF8050000208DF8060001208DF863
:10109000070001A800F0B9F94FF40070ADF80000A6
:1010A00003208DF8020018208DF803006946C94816
:1010B00000F074FA4FF48060ADF8000003208DF862
:1010C000020004208DF803006946C24800F066FA69
:1010D00004940020ADF81400ADF81600ADF8180027
:1010E000ADF81C000C20ADF81A000020ADF8080087
:1010F000ADF80A004FF40070ADF80C000020ADF818
:101100000E0004A9B44800F0AAFD02A9B24800F0FC
:101110001BFE012240F22551AF4800F038FE0121AC
:10112000AD4800F028FE08B010BDAB48008810F0B4
:10113000080F04D0A849091D0988C8B200BFA648F5
:10114000008810F0800F1ED0A3480C30008810F0EB
:10115000800F18D0A14801780078401C9F4A107079
:101160009F48405C9C49091D0880104600789D49B5
:101170000978884207D198480C30008820F0800018
:1011800095490C3108809448008810F0200F5ED0FB
:101190009149091D0988C8B29349097849B9934909
:1011A000934A127801EB0221087001218E4A1170D6
:1011B00036E08D490978012909D18C498C4A127889
:1011C00001EB022148700221874A117028E086490C
:1011D0000978022909D18549854A127801EB022153
:1011E00088700321804A11701AE07F490978032929
:1011F00009D17E497E4A127801EB0221C870042190
:10120000794A11700CE07949794A127801EB022190
:10121000754A1278885474490978491C724A1170C9
:1012200071490978FF2911D100216F4A1170704965
:10123000097831B100216E4A117001216D4A117097
:1012400004E001216A4A11706B4A117000BF7047B7
:1012500010B50446634801780078401C614A10705C
:101260005F4844545C480C30008810F0800F05D172
:10127000012240F22771584800F089FD204610BD38
:1012800031B500249DF80110564802780078401CC2
:10129000544B1870524881549DF80020184601782C
:1012A0000078401C18704E4842544B480C3000885F
:1012B00010F0800F05D1012240F22771464800F05E
:1012C00066FD9DF801002044C4B29DF80000204452
:1012D000C4B2204638BD31B50024484900980860A2
:1012E0000846C1783F4802780078401C3D4B187092
:1012F0003B48815441488178184602780078401C68
:101300001870374881543D48427818460178007873
:10131000401C187032484254384801781846027808
:101320000078401C18702E4881542B480C300088DF
:1013300010F0800F05D1012240F22771264800F0FD
:1013400026FD9DF803002044C4B29DF8020020440D
:10135000C4B29DF801002044C4B29DF800002044AE
:10136000C4B2204638BD10B504460FE020780D28E1
:1013700002D1FFF76DFF08E020780A2802D1FFF7BD
:1013800067FF02E02078FFF763FF641C20780028E5
:10139000ECD110BD70B504460D4600200AE0225C79
:1013A00010490B780978491C0E4E31700C49CA540B
:1013B000411CC8B2A842F2DB07480C30008810F08C
:1013C000800F05D1012240F22771034800F0DFFCB5
:1013D00070BD000000080140003801400C000020F2
:1013E000CD0500200D0000200F000020CD060020BC
:1013F0000E0000201100002010000020140000202A
:1014000031490143314A1160704770B50021002312
:101410000F22C4780CB32D4C246804F4E064C4F5A6
:10142000E064210AC1F10403CA40447804FA03F1DC
:101430008478144021430901254C0678A15504788D
:1014400004F01F050124AC4005786D114FF0E02633
:1014500006EB8505C5F8004109E0047804F01F0596
:101460000124AC401B4D0678761145F8264070BD2E
:10147000194A0A400243154B1B1F1A60704739B1C5
:10148000124A121D12680243104B1B1D1A6006E01F
:101490000E4A121D126882430C4B1B1D1A607047C6
:1014A000042808D14FF0E021096941F004014FF010
:1014B000E022116107E04FF0E021096921F0040109
:1014C0004FF0E022116170470000FA050CED00E0DA
:1014D00000E400E080E100E080FFFF1F10B504465B
:1014E000CA48844208D10121042000F027FB0021D2
:1014F000042000F023FB46E0C548844208D10121C6
:10150000082000F01BFB0021082000F017FB3AE048
:10151000C048844208D10121102000F00FFB0021B7
:10152000102000F00BFB2EE0BB48844208D10121C3
:10153000202000F003FB0021202000F0FFFA22E031
:10154000B648844208D10121402000F0F7FA00217A
:10155000402000F0F3FA16E0B148844208D101219E
:10156000802000F0EBFA0021802000F0E7FA0AE08A
:10157000AC48844207D10121801500F0DFFA002138
:10158000A01500F0DBFA10BD10B50121084600F0EF
:10159000D5FA0021012000F0D1FA10BD2DE9F0416B
:1015A000024600250026002000230024002791F891
:1015B00003C00CF00F0591F803C01CF0100F03D00E
:1015C00091F802C04CEA050591F800C0BCF1000F8B
:1015D00031D0146800202BE04FF0010C0CFA00F31E
:1015E000B1F800C00CEA03069E4220D183004FF000
:1015F0000F0C0CFA03F7BC4305FA03FC4CEA040495
:1016000091F803C0BCF1280F06D14FF0010C0CFA81
:1016100000FCC2F814C00AE091F803C0BCF1480F06
:1016200005D14FF0010C0CFA00FCC2F810C0401CB0
:101630000828D1D31460B1F800C0BCF1FF0F34DD2D
:10164000546800202EE000F1080C4FF0010808FA61
:101650000CF3B1F800C00CEA03069E4221D18300CE
:101660004FF00F0C0CFA03F7BC4305FA03FC4CEAED
:10167000040491F803C0BCF1280F05D100F1080C57
:1016800008FA0CF8C2F8148091F803C0BCF1480FB6
:1016900007D100F1080C4FF0010808FA0CF8C2F865
:1016A0001080401C0828CED35460BDE8F0814FF66E
:1016B000FF710180022181700421C17070470246D0
:1016C000002093680B4201D0012000E00020704709
:1016D0000146886880B2704702460020D3680B42FA
:1016E00001D0012000E0002070470146C86880B2A8
:1016F000704701617047416170470AB1016100E0C4
:1017000041617047C16070474FF480320A43826183
:101710008161826182698269704702460020424B82
:1017200018684FF68073184040EA021008433E4B99
:10173000186070473D49C8617047F0B50A460023FC
:1017400000240021002500F00046B6F1004F02D130
:10175000354EF16901E0344E7168C0F3034583B240
:1017600000F44016B6F5401F08D121F070612E4EEE
:10177000766826F070662C4F7E6012E000F48016CA
:10178000B6F5801F06D1032606FA05F4A14341F001
:10179000706106E0460D360103FA06F6B14341F0EA
:1017A000706122B1460D360103FA06F6314300F0AE
:1017B0000046B6F1004F02D11B4EF16101E01A4E16
:1017C0007160F0BD30B500228B071C0F0F2303FAA8
:1017D00004F2154B08338C1053F824309343124C09
:1017E00008348D1044F8253023468C1053F82430EB
:1017F0008C07240F00FA04F423430B4C08348D109B
:1018000044F8253030BD0A4908607047000801409F
:10181000000C01400010014000140140001801407C
:10182000001C014000200140000001400000204257
:10183000DC002042DD48006840F00100DB49086020
:1018400008464068DA490840D849486008460068B8
:10185000D8490840D54908600846006820F480202F
:1018600008600846406820F4FE0048604FF41F00FE
:1018700088607047CD49096821F48031CB4A1160F6
:101880001146096821F480211160B0F5803F03D032
:10189000B0F5802F0ED106E0C449096841F48031CB
:1018A000C24A116007E0C149096841F4A021BF4A5A
:1018B000116000E000BF00BF704710B50146002274
:1018C000002300204A11012A02D1B84C236806E007
:1018D000022A02D1B54C236A01E0B44C636A01F0DC
:1018E0001F02012494401C4201D0012000E000208E
:1018F00010BD38B5002000900024002500BF312025
:10190000FFF7DBFF05460098401C00900098B0F5FB
:10191000A06F01D0002DF2D03120FFF7CEFF08B12B
:10192000012400E00024204638BD014600209F4AE3
:10193000106820F0F80040EAC100106070479E492E
:101940000860704702460020984B586820F47C10CD
:1019500042EA01031843954B586070479649086660
:10196000704701460020914A506820F00300084368
:10197000506070478D48406800F00C007047014689
:1019800000208A4A506820F0F000084350607047F9
:1019900001460020854A506820F4E060084350600A
:1019A000704701460020814A506820F4605040EAA8
:1019B000C1005060704729B17C4A527A02437B4B88
:1019C0005A7204E0794A527A8243784B5A727047CD
:1019D0007A490860704701460020744A506820F434
:1019E00040400843506070470021754A11706F4AAB
:1019F00082F82010012802D0042808D103E0012138
:101A00006F4A117004E005216D4A117000E000BFBB
:101A100000BF70476B49086070476449096A014319
:101A2000624A11627047674944390860704730B5AF
:101A300000210022002400235C4D6D6805F00C019C
:101A400021B1042905D0082923D105E05E4D0560A8
:101A500022E05D4D05601FE0544D6D6805F4701285
:101A6000524D6D6805F48034022505EB92421CB995
:101A7000564D554305600BE04C4D6D6815F4003F25
:101A800003D0524D5543056002E04F4D554305606C
:101A900002E04D4D056000BF00BF444D6D6805F08C
:101AA000F00109094A4D6B5C0568DD4045603F4D1A
:101AB0006D6805F4E061090A454D6B5C4568DD40E1
:101AC00085603A4D6D6805F46051C90A404D6B5C04
:101AD0004568DD40C560354D6D6805F44041890BB2
:101AE0003C4D6B5CC568B5FBF3F5056130BD29B1B4
:101AF0002E4A526902432D4B5A6104E02B4A526927
:101B000082432A4B5A61704729B1284A926902439D
:101B1000264B9A6104E0254A92698243234B9A61DD
:101B2000704729B1214AD2690243204BDA6104E0AF
:101B30001E4AD26982431D4BDA61704729B11B4AA4
:101B4000D2680243194BDA6004E0184AD268824333
:101B5000164BDA60704729B1144A12690243134BDD
:101B60001A6104E0114A12698243104B1A617047EE
:101B700014494039086070470F49C86470470B49E1
:101B8000C87170470948406A40F080700749486250
:101B9000704701460020054A92680A4201D00120A0
:101BA00000E0002070470149887270470010024031
:101BB0000000FFF8FFFFF6FE00004242D80042425C
:101BC000201002408004424200127A0000093D00C9
:101BD000180000202800002010B50446FB4884426D
:101BE00009D101218803FFF7A9FF00214FF48040AC
:101BF000FFF7A4FF32E0F648844209D101214804EE
:101C0000FFF7A9FF00214FF40030FFF7A4FF25E004
:101C1000F048844209D101218804FFF79CFF00218C
:101C20004FF48020FFF797FF18E0EB48844209D17A
:101C30000121C804FFF78FFF00214FF40020FFF7B8
:101C40008AFF0BE0E548844208D101210805FFF72F
:101C500082FF00214FF48010FFF77DFF10BD2DE9BA
:101C6000F04786B005460E460024A24600BFA146B6
:101C70000027B08900B100BF2F462C8A4CF6FF70B8
:101C80000440F08804432C82AC894EF6F3100440E3
:101C9000B08831890843718908430443AC81AC8A18
:101CA0004FF6FF400440B0890443AC8201A8FFF71F
:101CB000BEFEC648874202D1DDF810A001E0DDF883
:101CC0000CA0A88910F4004F08D00AEBCA0000EB62
:101CD0000A1031684900B0FBF1F807E00AEBCA00CE
:101CE00000EB0A1031688900B0FBF1F86420B8FB02
:101CF000F0F004012009642101FB1089A88910F487
:101D0000004F08D0322000EBC900B0FBF1F000F02A
:101D10000700044308E0322000EB09106421B0FB07
:101D2000F1F000F00F0004432C8106B0BDE8F0870D
:101D30004FF41651016000218180C18001810C2186
:101D4000418100218181704710B502460020108A30
:101D50004FF2FF0318400B884C8823438C882343A1
:101D6000CC8823431843108210BD0021018041809C
:101D70008180C180704721B1828942F40052828102
:101D800004E082894DF6FF731A4082817047F0B5F6
:101D900003460024002600250020A1F510676A3FB5
:101DA00000D100BF1846C1F3421401F01F060127FD
:101DB00007FA06F5012C01D10C3004E0022C01D108
:101DC000103000E014301AB107682F43076002E0BA
:101DD0000768AF430760F0BD1AB1838A0B43838263
:101DE00002E0838A8B4383827047028A4FF6F07346
:101DF0001A400282028A0A430282704782894FF2A5
:101E0000FF731A40828182890A438281704721B11F
:101E1000828942F00202828104E082894FF6FD73DA
:101E20001A4082817047028A4FF6DF731A4002829D
:101E3000028A0A430282704721B1028A42F4804238
:101E4000028204E0028A4BF6FF731A400282704756
:101E5000C1F308028280704701468888C0F30800F9
:101E60007047818941F0010181817047028BD2B2B4
:101E70000283028B42EA012202837047028B02F442
:101E80007F420283028B0A430283704721B1828A18
:101E900042F02002828204E0828A4FF6DF731A4009
:101EA0008282704721B1828A42F01002828204E06D
:101EB000828A4FF6EF731A408282704721B1828A7C
:101EC00042F00802828204E0828A4FF6F7731A40D9
:101ED0008282704721B1828942F40042828103E00C
:101EE0008289C2F30E028281704721B1828A42F454
:101EF0000062828204E0828A4FF2FF731A4082827B
:101F00007047828A4FF6FB731A408282828A0A43A4
:101F10008282704721B1828A42F00202828204E00A
:101F2000828A4FF6FD731A40828270470246002073
:101F3000B1F5007F00D100BF13880B4201D0012012
:101F400000E00020704701F40072B2F5007F00D17C
:101F500000BFCA430280704770B5024600240023C8
:101F600000250020A1F510666A3E00D100BFC1F334
:101F7000421501F01F03012606FA03F3012D02D1D9
:101F80009689334006E0022D02D1168A334001E0E3
:101F9000968A33400C12012606FA04F4168834405F
:101FA00013B10CB1012000E0002070BD10B500227B
:101FB0000023A1F510646A3C00D100BF0A1201247D
:101FC0009440A3B2DC43048010BD000000380140FF
:101FD0000044004000480040004C004000500040D9
:101FE0000CB50020019000906B48006840F48030F0
:101FF0006949086000BF6848006800F4003000903C
:102000000198401C0190009818B90198B0F5A06F94
:10201000F1D16148006810F4003F02D00120009027
:1020200001E0002000900098012842D15B48006840
:1020300040F01000594908600846006820F003008D
:1020400008600846006840F0020008605248406896
:10205000514948600846406848600846406840F476
:10206000806048600846406820F47C10486008465C
:10207000406840F4E81048600846006840F080700E
:10208000086000BF4448006810F0007FFAD0424862
:10209000406820F00300404948600846406840F02E
:1020A0000200486000BF3C48406800F00C0008286F
:1020B000F9D10CBD10B5FFF793FF10BD10B5364830
:1020C000006840F00100344908600846406834491F
:1020D00008403149486008460068324908402E49A6
:1020E00008600846006820F48020086008464068C0
:1020F00020F4FE0048604FF41F008860FFF7DAFF0D
:102100004FF000602849086010BD10B50021002084
:102110000022214B5B6803F00C0121B1042906D099
:10212000082928D107E0214B214C236027E01F4BD1
:102130001F4C236023E0184B5B6803F47010164BB0
:102140005B6803F48032022303EB904022B9194B01
:102150004343174C23600DE00F4B5B6813F4003FC3
:1021600004D0144B4343124C236003E00F4B434312
:102170000F4C236003E00D4B0D4C236000BF00BFEC
:10218000054B5B68C3F303130B4CE15C084B1B6806
:10219000CB40074C236010BD0010024000200240DD
:1021A0000000FFF8FFFFF6FE08ED00E000127A00E5
:1021B0002C00002000093D003000002040EA01030F
:1021C0009B0703D009E008C9121F08C0042AFAD2ED
:1021D00003E011F8013B00F8013B521EF9D27047B1
:1021E000F0B480EA0102D40F4200B2EB410F02D2F8
:1021F0000246084611464A0042D0C30DDDB2C1F383
:10220000C752AD1A202D35DAC1F3160141F4000290
:1022100004B15242C5F1200602FA06F12A411044E7
:10222000B3EBD05F23D0C4B1012DA0EBC35009DCC8
:10223000F0BC4FF0004202EAC35200F50000DBB2EE
:1022400000F012BA400000F1807000EBC350A0F122
:10225000807040EAD170490009E0490841EAC07144
:10226000A0EBC35000F50000400800EBC350F0BCE9
:1022700000F0F1B96142012202EB4101001BF6E7D7
:10228000F0BC704781F00041AAE780F00040A7E76A
:102290002DE9FE4F804681EA0300C00F0C460090F6
:1022A00021F0004123F00045B8EB0200A94105D21E
:1022B0004046214690461C460B46024623F000400D
:1022C000104304D14046214603B0BDE8F08F270DEE
:1022D000C7F30A00C3F30A510290401A0190402844
:1022E00066DAC3F3130040F4801B0098924620B1D5
:1022F0000023D2EB030A63EB0B0B01985946C0F1A4
:102300004002504600F086F906460D4650465946B2
:10231000019A00F08EF910EB08006141002487EA71
:10232000115284EAE7731A433BD0009A3AB3019AF8
:10233000012A4FEA075210DC001B61EB02014FF04B
:10234000004202EA0752CDE90042001C41F580112B
:1023500032462B4600F038FAB6E7001B61EB02016B
:10236000001C41F5801300185B412018A2F50017EE
:1023700047EB030140EAD570B6196D4111E06D08D5
:102380004FEA360645EAC0754FEA0752001B61EB7B
:102390000201001C41F5801149084FEA3000001984
:1023A000514132462B4603B0BDE8F04F00F0FFB973
:1023B0000098012240000023D0EB020263EBE0739F
:1023C000009821464FEAE074B8EB000061EB04018D
:1023D000E9E783F000435BE781F0004158E72DE92E
:1023E000FE4F81EA030404F0004421F00041009410
:1023F0004FF0000B23F0004350EA010402D052EAF0
:10240000030404D10020014603B0BDE8F08FC3F3FC
:102410000A54C1F30A552C44A4F2F3340194A0FBEE
:102420000254C1F3130141F48011C3F3130343F4C5
:10243000801301FB024400FB034E840A970A44EA1E
:10244000815447EA8357A4FB076802958D0A05FB70
:1024500007854FEA932C04FB0C542705029D4FEA95
:10246000065847EA1637B5EB08056EEB070C870EE2
:10247000920E47EA811742EA8312A7FB0201B6EBEC
:102480000B0164EB00042B0D43EA0C335E1844EBA4
:102490001C50DA465146E7FB0201C5F313044FEA2C
:1024A0000B3343EA14534FEA0432019C43EA060318
:1024B000A4F10C040294009CCDE900B400F084F96E
:1024C000A2E72DE9F04D81EA030404F0004B21F06E
:1024D000004514464FF0000A23F0004150EA05027F
:1024E00020D054EA01021DD0C5F30A570246C5F3B5
:1024F0001303C1F31300C1F30A5640F4801543F4EB
:102500008013A7EB0608101BD64608F2FD3873EBC4
:10251000050002D308F1010801E092185B41B8F10F
:10252000000F03DA00200146BDE8F08D00204FF4D3
:102530008011064684460EE0171B73EB050705D392
:10254000121B63EB050306434CEA010C49084FEAF2
:10255000300092185B4150EA0107EDD152EA0300C6
:1025600012D082EA040083EA0501084303D1002265
:102570004FF0004308E0101BAB4102D201220023C0
:1025800002E06FF0010253101AEB06004CEB085109
:1025900010EB0A0041EB0B01BDE8F04D00F007B96C
:1025A00000F0004230F000400AD0C10D01F560712A
:1025B000C0F3160042EA0151C208400711437047B8
:1025C00000200146704701F0004330B421F0004183
:1025D00050EA010206D00A0DA2F56072C1F31301A0
:1025E000002A02DC30BC00207047440F44EAC104DA
:1025F000C100E01830BC00EBC25000F02CB8000065
:10260000002801DBC0F10040002901DBC1F10041DD
:1026100081427047202A04DB203A00FA02F10020B0
:1026200070479140C2F1200320FA03F31943904010
:102630007047202A06DBCB17203A41FA02F043EA22
:10264000E07306E041FA02F3D040C2F1200291406B
:102650000843194670470029A8BF7047401C49002D
:1026600008BF20F00100704710B4B0FA80FC00FAF7
:102670000CF050EA010404BF10BC704749B1CCF122
:10268000200421FA04F411FA0CF118BF01212143AE
:102690000843A3EB0C01CB1D0106000A002BBEBFB3
:1026A000002010BC704700EBC35010440029A4BFA9
:1026B00010BC7047401C490008BF20F0010010BC4E
:1026C000704780EA010210B502F00043400026D0B6
:1026D0004A0023D04FEA106101EB1261C0F35600AB
:1026E000C2F3560240F4000042F40002A0FB0220B4
:1026F000A1F17F014FEA0040140401D000F1010074
:1027000050EA124001D44000491EC2B20C0604EB4C
:10271000D010401C4008802A02D003E0002010BDE9
:1027200020F00100002900DA0020184310BD30B469
:1027300080EA010202F0004530F0004221F0004042
:1027400015D0A0B1C0F3C753C2F3C754C2F31601EA
:10275000C0F31600E41A41F4000140F400027D3495
:10276000914201D3641C00E04900002C02DA30BC25
:10277000002070474FF400000023914201D3891AD2
:10278000034340084FEA4101F7D151B1914202D1D0
:102790004FF0004105E002D24FF0010101E06FF07F
:1027A000010103EBC450284430BCFFF754BF10B5FF
:1027B000002B08DA401C41F1000192185B411A43DA
:1027C00001D120F0010010BD2DE9F04D92469B464D
:1027D00011B1B1FA81F202E0B0FA80F220329046F3
:1027E000FFF718FF04460F4640EA0A0041EA0B01D2
:1027F00053465A46084303D120463946BDE8F08D7A
:10280000114653EA010015D0C8F14002504600F0CD
:10281000A7F805460E46504659464246FFF7FAFECF
:10282000084301D0012000E00020054346EAE0769D
:102830002C4337430A984FEA4453A0EB08004FEA71
:10284000D4240A304FF0000244EA47544FEAD72517
:1028500002D500200146D1E7010510196941DDE9E3
:10286000084500196941BDE8F04DA0E770B521F0B9
:10287000004303430CD0C1F30A550024D5EB0405F3
:1028800064EB0403D617AD1AB34102DB0020014606
:1028900070BD201841EB025170BD2DE9F04D0023B1
:1028A0001A461B1A8A4103DB00200146BDE8F08D61
:1028B000C1F30A52C1F3130141F480154FF0000B2C
:1028C000D10702D100186D41521E0027044640F284
:1028D000FF11384601EB620A3E4680460246002060
:1028E0004FF4801100F03CF8C2197141BB1846EB5F
:1028F0000100B4EB030C75EB000C04D3E41A65EB98
:10290000000517460E46241908F101006D41804666
:102910003428E3DDF91946EB0600091BA84103D270
:102920004FF0FF32134601E0002213461BEB070075
:1029300046EB0A51BDE8F04DFFF739BF064C074D95
:1029400006E0E06840F0010394E80700984710347F
:10295000AC42F6D3FDF7CEFBA8390008C839000811
:10296000202A04DB203A21FA02F00021704721FAE4
:1029700002F3D040C2F1200291400843194670474B
:10298000420005D0C0F3C7525242914201DC002000
:10299000704700EBC15070470EB5C10F80EAE07080
:1029A0000844CA07002140F233438DE80E000A466E
:1029B0000B46FFF709FF03B000BD0EB540F23341EF
:1029C00002910021CDE900110A460B46FFF7FCFEFB
:1029D00003B000BD70B5C1F30A5201F000450024F8
:1029E000C1F3130140F2FF3341F480119A4201DA3E
:1029F000002070BD40F233439A42A2F2334203DC1E
:102A00005242FFF7ADFF00E090402C43F1D040422E
:102A100070BD490050EAC12018BF04204A0D18BFFC
:102A200040F0010040F2FF72B2EB515F08BF40F08E
:102A30000200012808BF052070474100080218BFA6
:102A400004200A0E18BF40F001004FF07F4232EA26
:102A5000010108BF40F00200012808BF05207047AF
:102A60002DE9F74F144696B00021C4E902111799D9
:102A7000089121F00045CA498D4206DC1799C4E946
:102A8000000119B00020BDE8F08FC649DFF818A397
:102A9000A9423CDD0899C54E0029C54FC54A179982
:102AA000534619DDFFF795FC554506D0C24AC34B86
:102AB000FFF78FFCC4E900010AE04FF0D352BF4B8F
:102AC000FFF787FC32463B46FFF783FCC4E9000171
:102AD00019B00120BDE8F08FFFF7DAFB554506D0AD
:102AE000B54AB64BFFF7D4FBC4E900010AE04FF04A
:102AF000D352B24BFFF7CCFB32463B46FFF7C8FB45
:102B0000C4E9000119B04FF0FF30BDE8F08FAC49C7
:102B1000A942179978DB21F000488346A94AAA4BBD
:102B20004146FFF75CFC0022A84BFFF7B1FBFFF723
:102B300051FF0990FFF730FF06460F469D4A534666
:102B4000FFF74DFC5A464346FFF746FC80468A464F
:102B5000994A9A4B30463946FFF741FC2A0D012528
:102B60000B9242465346FFF737FC032DC4E90001A0
:102B700039D00B98C1F30A51401A05EB45111139B0
:102B8000814230DA9248C346784400EB0510CDF814
:102B90001CA00C90D0E9002330463946FFF71FFCFB
:102BA000CDE9020102460B4658460799FFF711FC92
:102BB00080468A4602460B4658460799FFF709FCAD
:102BC000DDE90223FFF705FC83460C9803913946A3
:102BD000D0E902233046FFF702FC5A46039BFFF779
:102BE000F8FB6D1CBDE708980028A2BF099819B032
:102BF000BDE8F08F616881F000416160099819B00B
:102C00004042BDE8F08FFFE7C1F3130141F48011AA
:102C10000E911799C1F30A51A1F2F532511102F048
:102C20001F08C8F12002129200220C920D92694AEC
:102C30007A4402EB810101F1140C0DA95FF0060743
:102C4000DCF80020DCF8045002FA08F3129AD1F8FC
:102C500000A025FA02F21A430E9BA2FB0356A2FB28
:102C600000329A4415449A4534BF4FF0010B4FF09F
:102C7000000B51F8043C05EB0B0E7344954234BF36
:102C8000012200221644BBF1000F02D0AB4202D950
:102C900003E0AB4201D2012200E000223244C1F83D
:102CA00000A041E90223091FACF1040C7F1EC7D12B
:102CB0000898DDE90A6500F10050800F119008982E
:102CC000099F8000FFF768FE80468A463846FFF776
:102CD00074FE6FF01D02FFF7C9FD074630460591EF
:102CE000FFF76BFE6FF03D02FFF7C0FDCDE903106B
:102CF0002846FFF762FE6FF05D02FFF7B7FD06465C
:102D000002460B460191DDE90310FFF7C1FA3A468E
:102D1000059BFFF7BDFA42465346FFF7B9FA00207C
:102D20000D46834642465346FFF753FB3A46059B02
:102D3000FFF74FFBDDE90332FFF74BFB3246019B08
:102D4000FFF74AFBDFF89480234A4346FFF747FB2F
:102D500006460F46224A234B58462946FFF73FFBBB
:102D600032463B46FFF794FA0F4606464FF0A8421C
:102D7000434658462946FFF732FB32463B46FFF7AB
:102D800087FA179A12F0004F04D0119A81F000418F
:102D900052421192C4E90001119819B0BDE8F08FB8
:102DA000FB21E93F7CD90240FB21F93F7370032EE0
:102DB0008A19A33B000040543163621A61B4D03DCC
:102DC000FB21394183C8C96D305FE43F0000E03F1B
:102DD0002C0D0000B40C0000182D4454FB21F93DCB
:102DE0003326A611460B113C2DE9FF4D21F000487A
:102DF00007460C46B8F1795F08DAFFF7EBFD0028CB
:102E000001BF0020324904B0BDE8F08D3A462346A8
:102E100010461946FFF7E3FA054602462D480E46CE
:102E20000B460621784400F05DF82A463346FFF74A
:102E3000D6FADDE9022382468B4638462146FFF763
:102E4000CEFA04460F4652465B4628463146FFF707
:102E5000C6FA22463B46FFF7BCFA07468A464FF0C1
:102E6000FF3228463146FFF701FD1B4A90450ADA3A
:102E70003A465346FFF7ADFA04B00022BDE8F04DE4
:102E8000134BFFF7A9BA154A4245A8BFA8F500158C
:102E90004FF00004B8BF124D22462B46FFF799FAB7
:102EA0000646884622462B4600200949FFF791FA3C
:102EB00004460D463A46534630464146FFF789FAE6
:102EC00004B022462B46BDE8F04DFFF785BA00005E
:102ED0000000F03F600A00003333D33F0000E93FB9
:102EE0000000D23F2DE9F0414F1E00EBC701044620
:102EF000D1E9000115461E4637F006020DD02A46DC
:102F00003346FFF76CFA7F1E04EBC703D3E90023B7
:102F1000FFF7BEF937F00602F1D1022F25D0042FBA
:102F200013D0062F18BFBDE8F0812A463346FFF7BD
:102F300056FAD4E90A23FFF7ABF92A463346FFF7DE
:102F40004EFAD4E90823FFF7A3F92A463346FFF7E0
:102F500046FAD4E90623FFF79BF92A463346FFF7E2
:102F60003EFAD4E90423FFF793F92A463346FFF7E4
:102F700036FAD4E90223FFF78BF92A463346FFF7E6
:102F80002EFAD4E90023BDE8F041FFF781B9000033
:102F90002DE9FF4D054621F0004084B00C46B0F10C
:102FA000795F0BDA2846FFF734FD042808BF00F0EC
:102FB00065F8284608B02146BDE8F08D2A460B4644
:102FC0001046FFF70CFA06460F462A462346FFF73F
:102FD00006FA804626488A4632463B460521784412
:102FE000FFF780FF83461098029160B3214A224B7D
:102FF00040465146FFF7F3F9CDE900015A464046F5
:103000005146029BFFF7EBF982468846DDE906014F
:103010004FF0FF32FFF72AFC52464346FFF7D9F93B
:1030200032463B46FFF7DBF9DDE90623FFF7D1F92E
:10303000DDE90023FFF7CDF908B02A462346BDE8B5
:10304000F04DFFF7C9B90B465A4630463946FFF7EF
:10305000C6F9084A084BFFF71BF942465346FFF7EB
:10306000BEF908B02A462346BDE8F04DFFF710B977
:103070009E090000495555555555C5BF024A0020C7
:103080001107FFF7F3BB000001FDFFFF6FF05E01CA
:103090000807FFF775BC02E008C8121F08C1002A24
:1030A000FAD170477047002001E001C1121F002AC9
:1030B000FBD17047014908607047000040000020C4
:1030C0002DE9F04D904F21F0004A86B005460C46A0
:1030D000BA4530DBAAEB070028430CD08B48824569
:1030E00001DC1CD1DDB106B02846BDE8F04D4FF043
:1030F0000102FFF7BBBB864A864B2846FFF76FF9F4
:1031000007460E46844A854B28462146FFF767F955
:1031100006B03A463346BDE8F04DFFF7B9B8012096
:10312000FFF7C8FF06B00022BDE8F04D1346104679
:103130001146FFF7C6B97A48824542DABAF1795F9B
:103140000BDA2846FFF765FC042808BFFFF796FF57
:10315000284606B02146BDE8F08D2A460B461046AB
:10316000FFF73DF9834602466E480E460B460621A0
:103170007844FFF7B7FE5A463346FFF730F98046EA
:1031800069488A465A46334604217844FFF7AAFE26
:103190005A463346FFF723F900223B46FFF778F8FB
:1031A00002460B4640465146FFF78BF92A46234616
:1031B000FFF715F906B02A462346BDE8F04DFFF7A4
:1031C00067B8284624F0004100223D463B46FFF701
:1031D00003F94FF0FF32FFF749FB0646024653481A
:1031E0000F460B4606217844FFF77CFE32463B46ED
:1031F000FFF7F5F8CDE900014D4832463B46042182
:103200007844FFF76FFE32463B46FFF7E8F80022AE
:103210002B46FFF73DF8834602913046394600F0D1
:1032200065FA804643480D46504517DCDDE900014C
:103230005A46029BFFF745F942462B46FFF7CFF867
:1032400042462B46FFF724F80122FFF70FFB304AD6
:10325000304BFFF7BEF8304A304B4CE04FF0000ADD
:1032600052460B464046FFF713F8CDE9031052468D
:103270002B4610461946FFF7B2F832463B46FFF799
:10328000ABF8DDE90332FFF71CF906460F46DDE92E
:1032900000015A46029BFFF714F983460091012270
:1032A00030463946FFF7E2FA194A1A4BFFF794F80D
:1032B00006460F46012240462946FFF7D7FA5A46EE
:1032C000009BFFF78CF832463B46FFF782F8074633
:1032D0000E46012250462946FFF7C8FA0E4DDFF888
:1032E00058802A464346FFF777F83A463346FFF7B9
:1032F00073F82A464346FFF76FF8002CD8BF81F0D9
:10330000004106B0BDE8F08D0000F03F0000F07F06
:10331000075C143326A6913C182D4454FB21F93F39
:103320000000E03FC4060000DA0600004E06000080
:10333000640600003333EF3FFB21E93F2DE9F047FE
:103340004FF0684202EB40030C460546B3F1654F6F
:103350003CBF02EB4102B2F1654F3FD34FF07F42D9
:10336000B2EB400F28BFB2EB410F03D2BDE8F047EC
:10337000FEF736BF40EA01035B0008BF44F0FF419F
:103380000AD0B2EB400F08BFB2EB410F06D125F0D7
:10339000804024F0804105460C461FE0B2EB400F10
:1033A00012BF5FEA410245F0FF4004F0004115D032
:1033B0004FEA410292EA400310D4002AB4BF4FF012
:1033C0003E564FF09F463146FFF77BF905463146A2
:1033D0002046FFF776F9044628462146C0F3C75336
:1033E000C1F3C7529A1A1B2A06DD10F0004F14BF12
:1033F00054485548BDE8F08712F11A0F17DA11F05A
:10340000004F06D010F0004F0CBF50485048BDE8A8
:10341000F08721462846FFF78AF90446FFF70DFB9F
:10342000042808BFFFF732FE2046BDE8F0874200BF
:10343000B2EB410F25D910F0004F19BF454F464E52
:10344000464F474E224685F0004415460A4680F016
:10345000004110460A1A5200B2F1807F3ED2484025
:103460004049DFF804A110F0004F18D04FF03F485A
:103470003846FEF707FF074651463046FEF702FF83
:1034800017E011F0004F04BF00263746E2D010F0DD
:10349000004F19BF354F364E364F374EDAE74FF0F3
:1034A0007C583846FEF79CFE074651463046FEF7EC
:1034B00097FE064641462846FFF703F92146FEF7E8
:1034C0008FFE824621464046FFF7FBF82946FEF76D
:1034D000DCFE5146FFF72BF9044604E0214628465E
:1034E000FFF725F904460146FFF7EBF8804623492C
:1034F000FFF7E7F82249FEF773FE4146FFF7E1F8D0
:103500002049FEF76DFE4146FFF7DBF81E49FEF746
:1035100067FE4146FFF7D5F81C49FEF761FE0546F8
:1035200041462046FFF7CDF82946FFF7CAF8314655
:10353000FEF756FE2146FEF753FE3946BDE8F0473A
:10354000FEF74EBEDB0FC9BFDB0FC93FDB0F4940A3
:10355000DB0F49C00000C9BF22AAFDB90000C93F66
:1035600022AAFD390060ED3EC30ACE37000049C0F3
:1035700022AA7DBA0000494022AA7D3A2DAD65BD40
:103580008FB8D53D0FB511BE61C84C3EA8AAAABEE2
:1035900000B5284B21F0004287B09A42DCBF0022E0
:1035A000134631DD244B9A420DD168B94FF001002A
:1035B000FFF780FD002207B01346104611465DF864
:1035C00004EBFEF77EBF06DB07B04FF001025DF8AB
:1035D00004EBFFF74BB902AAFFF742FA10F0030120
:1035E00004BF0DF1080CBCE80F000DD0012001292B
:1035F0000ED0022914D00DF1080C0090BCE80F0089
:10360000FFF7C6FC07B000BDFFF7EEFB07B000BD3B
:103610000DF1080C0090BCE80F00FFF7B9FC05E0C5
:103620000DF1080CBCE80F00FFF7DEFB07B081F0DE
:10363000004100BDFB21E93F0000F07F00B5294BB0
:1036400021F0004287B09A4203DC00221346009228
:1036500033E0254B9A420DD168B94FF00100FFF7D6
:1036600029FD002207B01346104611465DF804EB11
:10367000FEF727BF06DB07B04FF001025DF804EB51
:10368000FFF7F4B802AAFFF7EBF910F003014FF0CF
:1036900001000DD0012914D002291AD00DF1080C17
:1036A000BCE80F00FFF7A0FB07B081F0004100BDB0
:1036B0000DF1080C0090BCE80F00FFF769FC07B0A3
:1036C00000BD0DF1080CBCE80F00FFF78DFB07B043
:1036D00000BD0DF1080C0090BCE80F00FFF758FC8E
:1036E000E2E70000FB21E93F0000F07F2DE9F04117
:1036F00006460F46FFF7D1F804000D4618BF01201B
:10370000284320F00040C0F17F6000F1E040C00F8E
:103710000ED0301C18BF0120384320F00040C0F10B
:103720007F6000F1E040C00F04BF0120FFF7C2FC42
:1037300020462946BDE8F081327C8900EDD96877C2
:10374000000000590000000000000000D69FDCA827
:103750001817AA90437327F6B968EDF4DED409FE72
:10376000E61C1C84DDE80B992927D6DF8D210F0389
:103770006418EFEE1EF0B7828276941500F37C0099
:1037800000001400988F00007F6A93D3C6000000E9
:1037900000E7B73F3600000000000000AF669ED093
:1037A000385DD36C20B9EB5D7C7C77044C80387439
:1037B00086EDCBFA57CBDC19E2001DDF5506E5CBD1
:1037C0000100000000000000000000B1F10F000047
:1037D00000000000000000000000000000000000E9
:1037E00000000000000000000000000000000000D9
:1037F00000000000000000000000000000000000C9
:1038000000000000000000000000000000000000B8
:1038100000000000000000000000000000000000A8
:103820000000000000000000000000000000000098
:1038300000CC31AA2C532E00555555555555C53F32
:103840007D6FEB0312D6D4BF5544880E55C1C93FD6
:103850003B8F68B52882A4BF88B20175E0EF493F6D
:1038600009F7FD0DE13D023F4B2D8A1C273A03C0AD
:10387000C88A599CE52A004059018D1B6C06E6BF99
:1038800082922EB1C5B8B33F4C5555555555A53FFD
:103890007751C1166CC156BF9015CB19A001FA3EE5
:1038A000AD529C804F7E92BEC4B1B4BD9EEE213E0F
:1038B000D43888BEE9FAA8BD00004054FB21F93F86
:1038C0003163621A61B4D03D0000601A61B4D03D2A
:1038D0007370032E8A19A33B0000002E8A19A33BA4
:1038E000C14920259A837B390000000000000000B8
:1038F0006E83F9A22915444ED15727FCC0DD34F55B
:10390000999562DB4190433CAB6351FE61C5BBDEE0
:103910003A6E24B7E0D24D42EA2E49061C92D109F4
:103920001CEB1DFE3EA729B1F53582E88444BB2E71
:1039300026709CE9417E5FB439D69139F4395383BE
:103940008B5F849C3B28F9BDFF97F81F0F9805DE1D
:103950008B112FEF1F6D0A5ACF7E366DB709CB271B
:10396000663F464F2DEA5F9EC7BA27757BF1E5EBB0
:10397000F739073DEA92528AB15FFB6B085D8D1FF4
:10398000A6F810111111813FD561C119A0012ABFFC
:103990007DFEB157E31DC73EEB9C2B8AE6E55ABE80
:1039A0007CD5CF5A3AD9E53DC8390008000000203F
:1039B00044000000963000080C3A00084400002043
:1039C0008C0C0000A630000802010000000000007E
:1039D00003000000000000000000000000000000E4
:1039E00000000000010203040102030406070809A5
:1039F0000204060800A24A040000000000000000C3
:0C3A000001020304060708090000000092
:04000005080000ED02
:00000001FF
